{
	"data": {
		"bytecode": {
			"linkReferences": {},
			"object": "6080604052600280546001600160a01b0319908116739fad71370ae14ef15dbd1a1767633c8e53d01a441790915560038054909116905534801561004257600080fd5b50600060208190527fada5013122d395ba3c54772283fb069b10426056ef8ca54750cb9bb552a59e7d80546001600160a01b03199081167313a145d215182924c89f2abc7d358dcc72f8f7889081179092557f101e368776582e57ab3d116ffe2517c0a585cd5b23174b01e275c2d8329c3d8380548216831790557f463154dffd5ddce82baa6ddaa825ffda4b4cc1dd8abd5af72f421c487b1335db80548216831790557fd376c0dc9e6a0a44867c5e1fefd6ecef82bbd522b0a13a792fef5100445ee32380548216831790557f8839e33ea8bc27e2dca8c9b90c78bcf651bd5273f6d53154cb494f42572e41d880548216831790557f3e807e4ad3a37228e4135223e5b895e16cfa828d4ca59e01a3d87953f99f6ef980548216831790556105079092527f86c003f61d7b45f96a2106185df5c32aaab5381b4a17a03ccdd2bf61e43f156980549092161790556113ee8061019f6000396000f3fe60806040526004361061007f5760003560e01c80638e5f5f571161004e5780638e5f5f57146101025780639e281a9814610115578063d5bcb9b514610135578063ee8725581461015557610086565b80633c50eec11461008b5780633ccfd60b146100c1578063552079dc146100d85780635c0e6c40146100e057610086565b3661008657005b600080fd5b34801561009757600080fd5b506100ab6100a6366004610ded565b610175565b6040516100b8919061112a565b60405180910390f35b3480156100cd57600080fd5b506100d661043c565b005b6100d661046b565b3480156100ec57600080fd5b506100f561046d565b6040516100b8919061108a565b6100d6610110366004610e7e565b61047c565b34801561012157600080fd5b506100d6610130366004610e7e565b61048f565b34801561014157600080fd5b506100d6610150366004610e28565b610517565b34801561016157600080fd5b506100d6610170366004610ea7565b61083d565b600060606001600160a01b03851673c02aaa39b223fe8d0a0e5c4f27ead9083c756cc214806101c057506001600160a01b03841673c02aaa39b223fe8d0a0e5c4f27ead9083c756cc2145b1561026e576040805160028082526060820183529091602083019080368337019050509050848160008151811061020757634e487b7160e01b600052603260045260246000fd5b60200260200101906001600160a01b031690816001600160a01b031681525050838160018151811061024957634e487b7160e01b600052603260045260246000fd5b60200260200101906001600160a01b031690816001600160a01b03168152505061036a565b60408051600380825260808201909252906020820160608036833701905050905084816000815181106102b157634e487b7160e01b600052603260045260246000fd5b60200260200101906001600160a01b031690816001600160a01b03168152505073c02aaa39b223fe8d0a0e5c4f27ead9083c756cc28160018151811061030757634e487b7160e01b600052603260045260246000fd5b60200260200101906001600160a01b031690816001600160a01b031681525050838160028151811061034957634e487b7160e01b600052603260045260246000fd5b60200260200101906001600160a01b031690816001600160a01b0316815250505b60405163d06ca61f60e01b815260009073d9e1ce17f2641f24ae83637ab66a2cca9c378b9f9063d06ca61f906103a690879086906004016112d4565b60006040518083038186803b1580156103be57600080fd5b505afa1580156103d2573d6000803e3d6000fd5b505050506040513d6000823e601f3d908101601f191682016040526103fa9190810190610f36565b9050806001835161040b9190611349565b8151811061042957634e487b7160e01b600052603260045260246000fd5b6020026020010151925050509392505050565b60405133904780156108fc02916000818181858888f19350505050158015610468573d6000803e3d6000fd5b50565b565b6001546001600160a01b031681565b606061048a308484846109f6565b505050565b60405163a9059cbb60e01b815282906001600160a01b0382169063a9059cbb906104bf90339086906004016110f2565b602060405180830381600087803b1580156104d957600080fd5b505af11580156104ed573d6000803e3d6000fd5b505050506040513d601f19601f820116820180604052508101906105119190610ff0565b50505050565b60405163095ea7b360e01b81526001600160a01b0386169063095ea7b3906105599073d9e1ce17f2641f24ae83637ab66a2cca9c378b9f9087906004016110f2565b602060405180830381600087803b15801561057357600080fd5b505af1158015610587573d6000803e3d6000fd5b505050506040513d601f19601f820116820180604052508101906105ab9190610ff0565b5060606001600160a01b03861673c02aaa39b223fe8d0a0e5c4f27ead9083c756cc214806105f557506001600160a01b03851673c02aaa39b223fe8d0a0e5c4f27ead9083c756cc2145b156106a3576040805160028082526060820183529091602083019080368337019050509050858160008151811061063c57634e487b7160e01b600052603260045260246000fd5b60200260200101906001600160a01b031690816001600160a01b031681525050848160018151811061067e57634e487b7160e01b600052603260045260246000fd5b60200260200101906001600160a01b031690816001600160a01b03168152505061079f565b60408051600380825260808201909252906020820160608036833701905050905085816000815181106106e657634e487b7160e01b600052603260045260246000fd5b60200260200101906001600160a01b031690816001600160a01b03168152505073c02aaa39b223fe8d0a0e5c4f27ead9083c756cc28160018151811061073c57634e487b7160e01b600052603260045260246000fd5b60200260200101906001600160a01b031690816001600160a01b031681525050848160028151811061077e57634e487b7160e01b600052603260045260246000fd5b60200260200101906001600160a01b031690816001600160a01b0316815250505b6040516338ed173960e01b815273d9e1ce17f2641f24ae83637ab66a2cca9c378b9f906338ed1739906107de90879087908690889042906004016112f5565b600060405180830381600087803b1580156107f857600080fd5b505af115801561080c573d6000803e3d6000fd5b505050506040513d6000823e601f3d908101601f191682016040526108349190810190610f36565b50505050505050565b6108473086610a67565b84111561086f5760405162461bcd60e51b8152600401610866906111ce565b60405180910390fd5b604051632e1a7d4d60e01b815273c02aaa39b223fe8d0a0e5c4f27ead9083c756cc290632e1a7d4d906108ae90673782dace9d9000009060040161112a565b600060405180830381600087803b1580156108c857600080fd5b505af11580156108dc573d6000803e3d6000fd5b505060028054600354604051630204b01b60e01b81526001600160a01b039283169550630204b01b9450673782dace9d90000093610923939092839291169060040161110b565b6000604051808303818588803b15801561093c57600080fd5b505af1158015610950573d6000803e3d6000fd5b505050505073c02aaa39b223fe8d0a0e5c4f27ead9083c756cc26001600160a01b031663d0e30db0673782dace9d9000006040518263ffffffff1660e01b81526004016000604051808303818588803b1580156109ac57600080fd5b505af11580156109c0573d6000803e3d6000fd5b505050505060006109da8486610b2090919063ffffffff16565b90506109ee6109e7610b4f565b8783610bbe565b505050505050565b6109fe610b4f565b6001600160a01b0316635cffe9de858585856040518563ffffffff1660e01b8152600401610a2f949392919061109e565b600060405180830381600087803b158015610a4957600080fd5b505af1158015610a5d573d6000803e3d6000fd5b5050505050505050565b6000610a71610c7b565b6001600160a01b0316826001600160a01b03161415610a9b57506001600160a01b03821631610b1a565b6040516370a0823160e01b81526001600160a01b038316906370a0823190610ac790869060040161108a565b60206040518083038186803b158015610adf57600080fd5b505afa158015610af3573d6000803e3d6000fd5b505050506040513d601f19601f82011682018060405250810190610b179190611010565b90505b92915050565b600080610b2d8385611331565b905083811015610b175760405162461bcd60e51b815260040161086690611133565b6000808080610b5c610c93565b81526020810191909152604001600020546001600160a01b03161415610b945760405162461bcd60e51b81526004016108669061121c565b600080610b9f610c93565b81526020810191909152604001600020546001600160a01b0316905090565b610bc6610c7b565b6001600160a01b0316826001600160a01b03161415610c67576000836001600160a01b031682604051610bf890611087565b60006040518083038185875af1925050503d8060008114610c35576040519150601f19603f3d011682016040523d82523d6000602084013e610c3a565b606091505b5090915050600181151514610c615760405162461bcd60e51b81526004016108669061119f565b5061048a565b61048a6001600160a01b0383168483610c97565b73eeeeeeeeeeeeeeeeeeeeeeeeeeeeeeeeeeeeeeee90565b4690565b61048a8363a9059cbb60e01b8484604051602401610cb69291906110f2565b60408051601f198184030181529190526020810180516001600160e01b03166001600160e01b031990931692909217909152610cfa826001600160a01b0316610dcc565b610d165760405162461bcd60e51b81526004016108669061129d565b600080836001600160a01b031683604051610d31919061106b565b6000604051808303816000865af19150503d8060008114610d6e576040519150601f19603f3d011682016040523d82523d6000602084013e610d73565b606091505b509150915081610d955760405162461bcd60e51b81526004016108669061116a565b8051156105115780806020019051810190610db09190610ff0565b6105115760405162461bcd60e51b815260040161086690611253565b803b15155b919050565b80356001600160a01b0381168114610dd157600080fd5b600080600060608486031215610e01578283fd5b610e0a84610dd6565b9250610e1860208501610dd6565b9150604084013590509250925092565b600080600080600060a08688031215610e3f578081fd5b610e4886610dd6565b9450610e5660208701610dd6565b93506040860135925060608601359150610e7260808701610dd6565b90509295509295909350565b60008060408385031215610e90578182fd5b610e9983610dd6565b946020939093013593505050565b600080600080600060808688031215610ebe578081fd5b610ec786610dd6565b94506020860135935060408601359250606086013567ffffffffffffffff80821115610ef1578283fd5b818801915088601f830112610f04578283fd5b813581811115610f12578384fd5b896020828501011115610f23578384fd5b9699959850939650602001949392505050565b60006020808385031215610f48578182fd5b825167ffffffffffffffff80821115610f5f578384fd5b818501915085601f830112610f72578384fd5b815181811115610f8457610f846113a2565b83810260405185828201018181108582111715610fa357610fa36113a2565b604052828152858101935084860182860187018a1015610fc1578788fd5b8795505b83861015610fe3578051855260019590950194938601938601610fc5565b5098975050505050505050565b600060208284031215611001578081fd5b81518015158114610b17578182fd5b600060208284031215611021578081fd5b5051919050565b6000815180845260208085019450808401835b838110156110605781516001600160a01b03168752958201959082019060010161103b565b509495945050505050565b6000825161107d818460208701611360565b9190910192915050565b90565b6001600160a01b0391909116815260200190565b600060018060a01b0380871683528086166020840152508360408301526080606083015282518060808401526110db8160a0850160208701611360565b601f01601f19169190910160a00195945050505050565b6001600160a01b03929092168252602082015260400190565b92835260208301919091526001600160a01b0316604082015260600190565b90815260200190565b6020808252601b908201527f536166654d6174683a206164646974696f6e206f766572666c6f770000000000604082015260600190565b6020808252818101527f5361666545524332303a206c6f772d6c6576656c2063616c6c206661696c6564604082015260600190565b602080825260159082015274086deead8c8dc4ee840e8e4c2dce6cccae4408aa89605b1b604082015260600190565b6020808252602e908201527f496e76616c69642062616c616e63652c207761732074686520666c6173684c6f60408201526d616e207375636365737366756c3f60901b606082015260800190565b6020808252601e908201527f556e696c656e6456313a20436861696e206e6f7420737570706f727465640000604082015260600190565b6020808252602a908201527f5361666545524332303a204552433230206f7065726174696f6e20646964206e6040820152691bdd081cdd58d8d9595960b21b606082015260800190565b6020808252601f908201527f5361666545524332303a2063616c6c20746f206e6f6e2d636f6e747261637400604082015260600190565b6000838252604060208301526112ed6040830184611028565b949350505050565b600086825285602083015260a0604083015261131460a0830186611028565b6001600160a01b0394909416606083015250608001529392505050565b600082198211156113445761134461138c565b500190565b60008282101561135b5761135b61138c565b500390565b60005b8381101561137b578181015183820152602001611363565b838111156105115750506000910152565b634e487b7160e01b600052601160045260246000fd5b634e487b7160e01b600052604160045260246000fdfea264697066735822122069a39f42fe102fa42875b63b5cb833ae41304548473a67486bc05275e64fbe9564736f6c63430008000033",
			"opcodes": "PUSH1 0x80 PUSH1 0x40 MSTORE PUSH1 0x2 DUP1 SLOAD PUSH1 0x1 PUSH1 0x1 PUSH1 0xA0 SHL SUB NOT SWAP1 DUP2 AND PUSH20 0x9FAD71370AE14EF15DBD1A1767633C8E53D01A44 OR SWAP1 SWAP2 SSTORE PUSH1 0x3 DUP1 SLOAD SWAP1 SWAP2 AND SWAP1 SSTORE CALLVALUE DUP1 ISZERO PUSH2 0x42 JUMPI PUSH1 0x0 DUP1 REVERT JUMPDEST POP PUSH1 0x0 PUSH1 0x20 DUP2 SWAP1 MSTORE PUSH32 0xADA5013122D395BA3C54772283FB069B10426056EF8CA54750CB9BB552A59E7D DUP1 SLOAD PUSH1 0x1 PUSH1 0x1 PUSH1 0xA0 SHL SUB NOT SWAP1 DUP2 AND PUSH20 0x13A145D215182924C89F2ABC7D358DCC72F8F788 SWAP1 DUP2 OR SWAP1 SWAP3 SSTORE PUSH32 0x101E368776582E57AB3D116FFE2517C0A585CD5B23174B01E275C2D8329C3D83 DUP1 SLOAD DUP3 AND DUP4 OR SWAP1 SSTORE PUSH32 0x463154DFFD5DDCE82BAA6DDAA825FFDA4B4CC1DD8ABD5AF72F421C487B1335DB DUP1 SLOAD DUP3 AND DUP4 OR SWAP1 SSTORE PUSH32 0xD376C0DC9E6A0A44867C5E1FEFD6ECEF82BBD522B0A13A792FEF5100445EE323 DUP1 SLOAD DUP3 AND DUP4 OR SWAP1 SSTORE PUSH32 0x8839E33EA8BC27E2DCA8C9B90C78BCF651BD5273F6D53154CB494F42572E41D8 DUP1 SLOAD DUP3 AND DUP4 OR SWAP1 SSTORE PUSH32 0x3E807E4AD3A37228E4135223E5B895E16CFA828D4CA59E01A3D87953F99F6EF9 DUP1 SLOAD DUP3 AND DUP4 OR SWAP1 SSTORE PUSH2 0x507 SWAP1 SWAP3 MSTORE PUSH32 0x86C003F61D7B45F96A2106185DF5C32AAAB5381B4A17A03CCDD2BF61E43F1569 DUP1 SLOAD SWAP1 SWAP3 AND OR SWAP1 SSTORE PUSH2 0x13EE DUP1 PUSH2 0x19F PUSH1 0x0 CODECOPY PUSH1 0x0 RETURN INVALID PUSH1 0x80 PUSH1 0x40 MSTORE PUSH1 0x4 CALLDATASIZE LT PUSH2 0x7F JUMPI PUSH1 0x0 CALLDATALOAD PUSH1 0xE0 SHR DUP1 PUSH4 0x8E5F5F57 GT PUSH2 0x4E JUMPI DUP1 PUSH4 0x8E5F5F57 EQ PUSH2 0x102 JUMPI DUP1 PUSH4 0x9E281A98 EQ PUSH2 0x115 JUMPI DUP1 PUSH4 0xD5BCB9B5 EQ PUSH2 0x135 JUMPI DUP1 PUSH4 0xEE872558 EQ PUSH2 0x155 JUMPI PUSH2 0x86 JUMP JUMPDEST DUP1 PUSH4 0x3C50EEC1 EQ PUSH2 0x8B JUMPI DUP1 PUSH4 0x3CCFD60B EQ PUSH2 0xC1 JUMPI DUP1 PUSH4 0x552079DC EQ PUSH2 0xD8 JUMPI DUP1 PUSH4 0x5C0E6C40 EQ PUSH2 0xE0 JUMPI PUSH2 0x86 JUMP JUMPDEST CALLDATASIZE PUSH2 0x86 JUMPI STOP JUMPDEST PUSH1 0x0 DUP1 REVERT JUMPDEST CALLVALUE DUP1 ISZERO PUSH2 0x97 JUMPI PUSH1 0x0 DUP1 REVERT JUMPDEST POP PUSH2 0xAB PUSH2 0xA6 CALLDATASIZE PUSH1 0x4 PUSH2 0xDED JUMP JUMPDEST PUSH2 0x175 JUMP JUMPDEST PUSH1 0x40 MLOAD PUSH2 0xB8 SWAP2 SWAP1 PUSH2 0x112A JUMP JUMPDEST PUSH1 0x40 MLOAD DUP1 SWAP2 SUB SWAP1 RETURN JUMPDEST CALLVALUE DUP1 ISZERO PUSH2 0xCD JUMPI PUSH1 0x0 DUP1 REVERT JUMPDEST POP PUSH2 0xD6 PUSH2 0x43C JUMP JUMPDEST STOP JUMPDEST PUSH2 0xD6 PUSH2 0x46B JUMP JUMPDEST CALLVALUE DUP1 ISZERO PUSH2 0xEC JUMPI PUSH1 0x0 DUP1 REVERT JUMPDEST POP PUSH2 0xF5 PUSH2 0x46D JUMP JUMPDEST PUSH1 0x40 MLOAD PUSH2 0xB8 SWAP2 SWAP1 PUSH2 0x108A JUMP JUMPDEST PUSH2 0xD6 PUSH2 0x110 CALLDATASIZE PUSH1 0x4 PUSH2 0xE7E JUMP JUMPDEST PUSH2 0x47C JUMP JUMPDEST CALLVALUE DUP1 ISZERO PUSH2 0x121 JUMPI PUSH1 0x0 DUP1 REVERT JUMPDEST POP PUSH2 0xD6 PUSH2 0x130 CALLDATASIZE PUSH1 0x4 PUSH2 0xE7E JUMP JUMPDEST PUSH2 0x48F JUMP JUMPDEST CALLVALUE DUP1 ISZERO PUSH2 0x141 JUMPI PUSH1 0x0 DUP1 REVERT JUMPDEST POP PUSH2 0xD6 PUSH2 0x150 CALLDATASIZE PUSH1 0x4 PUSH2 0xE28 JUMP JUMPDEST PUSH2 0x517 JUMP JUMPDEST CALLVALUE DUP1 ISZERO PUSH2 0x161 JUMPI PUSH1 0x0 DUP1 REVERT JUMPDEST POP PUSH2 0xD6 PUSH2 0x170 CALLDATASIZE PUSH1 0x4 PUSH2 0xEA7 JUMP JUMPDEST PUSH2 0x83D JUMP JUMPDEST PUSH1 0x0 PUSH1 0x60 PUSH1 0x1 PUSH1 0x1 PUSH1 0xA0 SHL SUB DUP6 AND PUSH20 0xC02AAA39B223FE8D0A0E5C4F27EAD9083C756CC2 EQ DUP1 PUSH2 0x1C0 JUMPI POP PUSH1 0x1 PUSH1 0x1 PUSH1 0xA0 SHL SUB DUP5 AND PUSH20 0xC02AAA39B223FE8D0A0E5C4F27EAD9083C756CC2 EQ JUMPDEST ISZERO PUSH2 0x26E JUMPI PUSH1 0x40 DUP1 MLOAD PUSH1 0x2 DUP1 DUP3 MSTORE PUSH1 0x60 DUP3 ADD DUP4 MSTORE SWAP1 SWAP2 PUSH1 0x20 DUP4 ADD SWAP1 DUP1 CALLDATASIZE DUP4 CALLDATACOPY ADD SWAP1 POP POP SWAP1 POP DUP5 DUP2 PUSH1 0x0 DUP2 MLOAD DUP2 LT PUSH2 0x207 JUMPI PUSH4 0x4E487B71 PUSH1 0xE0 SHL PUSH1 0x0 MSTORE PUSH1 0x32 PUSH1 0x4 MSTORE PUSH1 0x24 PUSH1 0x0 REVERT JUMPDEST PUSH1 0x20 MUL PUSH1 0x20 ADD ADD SWAP1 PUSH1 0x1 PUSH1 0x1 PUSH1 0xA0 SHL SUB AND SWAP1 DUP2 PUSH1 0x1 PUSH1 0x1 PUSH1 0xA0 SHL SUB AND DUP2 MSTORE POP POP DUP4 DUP2 PUSH1 0x1 DUP2 MLOAD DUP2 LT PUSH2 0x249 JUMPI PUSH4 0x4E487B71 PUSH1 0xE0 SHL PUSH1 0x0 MSTORE PUSH1 0x32 PUSH1 0x4 MSTORE PUSH1 0x24 PUSH1 0x0 REVERT JUMPDEST PUSH1 0x20 MUL PUSH1 0x20 ADD ADD SWAP1 PUSH1 0x1 PUSH1 0x1 PUSH1 0xA0 SHL SUB AND SWAP1 DUP2 PUSH1 0x1 PUSH1 0x1 PUSH1 0xA0 SHL SUB AND DUP2 MSTORE POP POP PUSH2 0x36A JUMP JUMPDEST PUSH1 0x40 DUP1 MLOAD PUSH1 0x3 DUP1 DUP3 MSTORE PUSH1 0x80 DUP3 ADD SWAP1 SWAP3 MSTORE SWAP1 PUSH1 0x20 DUP3 ADD PUSH1 0x60 DUP1 CALLDATASIZE DUP4 CALLDATACOPY ADD SWAP1 POP POP SWAP1 POP DUP5 DUP2 PUSH1 0x0 DUP2 MLOAD DUP2 LT PUSH2 0x2B1 JUMPI PUSH4 0x4E487B71 PUSH1 0xE0 SHL PUSH1 0x0 MSTORE PUSH1 0x32 PUSH1 0x4 MSTORE PUSH1 0x24 PUSH1 0x0 REVERT JUMPDEST PUSH1 0x20 MUL PUSH1 0x20 ADD ADD SWAP1 PUSH1 0x1 PUSH1 0x1 PUSH1 0xA0 SHL SUB AND SWAP1 DUP2 PUSH1 0x1 PUSH1 0x1 PUSH1 0xA0 SHL SUB AND DUP2 MSTORE POP POP PUSH20 0xC02AAA39B223FE8D0A0E5C4F27EAD9083C756CC2 DUP2 PUSH1 0x1 DUP2 MLOAD DUP2 LT PUSH2 0x307 JUMPI PUSH4 0x4E487B71 PUSH1 0xE0 SHL PUSH1 0x0 MSTORE PUSH1 0x32 PUSH1 0x4 MSTORE PUSH1 0x24 PUSH1 0x0 REVERT JUMPDEST PUSH1 0x20 MUL PUSH1 0x20 ADD ADD SWAP1 PUSH1 0x1 PUSH1 0x1 PUSH1 0xA0 SHL SUB AND SWAP1 DUP2 PUSH1 0x1 PUSH1 0x1 PUSH1 0xA0 SHL SUB AND DUP2 MSTORE POP POP DUP4 DUP2 PUSH1 0x2 DUP2 MLOAD DUP2 LT PUSH2 0x349 JUMPI PUSH4 0x4E487B71 PUSH1 0xE0 SHL PUSH1 0x0 MSTORE PUSH1 0x32 PUSH1 0x4 MSTORE PUSH1 0x24 PUSH1 0x0 REVERT JUMPDEST PUSH1 0x20 MUL PUSH1 0x20 ADD ADD SWAP1 PUSH1 0x1 PUSH1 0x1 PUSH1 0xA0 SHL SUB AND SWAP1 DUP2 PUSH1 0x1 PUSH1 0x1 PUSH1 0xA0 SHL SUB AND DUP2 MSTORE POP POP JUMPDEST PUSH1 0x40 MLOAD PUSH4 0xD06CA61F PUSH1 0xE0 SHL DUP2 MSTORE PUSH1 0x0 SWAP1 PUSH20 0xD9E1CE17F2641F24AE83637AB66A2CCA9C378B9F SWAP1 PUSH4 0xD06CA61F SWAP1 PUSH2 0x3A6 SWAP1 DUP8 SWAP1 DUP7 SWAP1 PUSH1 0x4 ADD PUSH2 0x12D4 JUMP JUMPDEST PUSH1 0x0 PUSH1 0x40 MLOAD DUP1 DUP4 SUB DUP2 DUP7 DUP1 EXTCODESIZE ISZERO DUP1 ISZERO PUSH2 0x3BE JUMPI PUSH1 0x0 DUP1 REVERT JUMPDEST POP GAS STATICCALL ISZERO DUP1 ISZERO PUSH2 0x3D2 JUMPI RETURNDATASIZE PUSH1 0x0 DUP1 RETURNDATACOPY RETURNDATASIZE PUSH1 0x0 REVERT JUMPDEST POP POP POP POP PUSH1 0x40 MLOAD RETURNDATASIZE PUSH1 0x0 DUP3 RETURNDATACOPY PUSH1 0x1F RETURNDATASIZE SWAP1 DUP2 ADD PUSH1 0x1F NOT AND DUP3 ADD PUSH1 0x40 MSTORE PUSH2 0x3FA SWAP2 SWAP1 DUP2 ADD SWAP1 PUSH2 0xF36 JUMP JUMPDEST SWAP1 POP DUP1 PUSH1 0x1 DUP4 MLOAD PUSH2 0x40B SWAP2 SWAP1 PUSH2 0x1349 JUMP JUMPDEST DUP2 MLOAD DUP2 LT PUSH2 0x429 JUMPI PUSH4 0x4E487B71 PUSH1 0xE0 SHL PUSH1 0x0 MSTORE PUSH1 0x32 PUSH1 0x4 MSTORE PUSH1 0x24 PUSH1 0x0 REVERT JUMPDEST PUSH1 0x20 MUL PUSH1 0x20 ADD ADD MLOAD SWAP3 POP POP POP SWAP4 SWAP3 POP POP POP JUMP JUMPDEST PUSH1 0x40 MLOAD CALLER SWAP1 SELFBALANCE DUP1 ISZERO PUSH2 0x8FC MUL SWAP2 PUSH1 0x0 DUP2 DUP2 DUP2 DUP6 DUP9 DUP9 CALL SWAP4 POP POP POP POP ISZERO DUP1 ISZERO PUSH2 0x468 JUMPI RETURNDATASIZE PUSH1 0x0 DUP1 RETURNDATACOPY RETURNDATASIZE PUSH1 0x0 REVERT JUMPDEST POP JUMP JUMPDEST JUMP JUMPDEST PUSH1 0x1 SLOAD PUSH1 0x1 PUSH1 0x1 PUSH1 0xA0 SHL SUB AND DUP2 JUMP JUMPDEST PUSH1 0x60 PUSH2 0x48A ADDRESS DUP5 DUP5 DUP5 PUSH2 0x9F6 JUMP JUMPDEST POP POP POP JUMP JUMPDEST PUSH1 0x40 MLOAD PUSH4 0xA9059CBB PUSH1 0xE0 SHL DUP2 MSTORE DUP3 SWAP1 PUSH1 0x1 PUSH1 0x1 PUSH1 0xA0 SHL SUB DUP3 AND SWAP1 PUSH4 0xA9059CBB SWAP1 PUSH2 0x4BF SWAP1 CALLER SWAP1 DUP7 SWAP1 PUSH1 0x4 ADD PUSH2 0x10F2 JUMP JUMPDEST PUSH1 0x20 PUSH1 0x40 MLOAD DUP1 DUP4 SUB DUP2 PUSH1 0x0 DUP8 DUP1 EXTCODESIZE ISZERO DUP1 ISZERO PUSH2 0x4D9 JUMPI PUSH1 0x0 DUP1 REVERT JUMPDEST POP GAS CALL ISZERO DUP1 ISZERO PUSH2 0x4ED JUMPI RETURNDATASIZE PUSH1 0x0 DUP1 RETURNDATACOPY RETURNDATASIZE PUSH1 0x0 REVERT JUMPDEST POP POP POP POP PUSH1 0x40 MLOAD RETURNDATASIZE PUSH1 0x1F NOT PUSH1 0x1F DUP3 ADD AND DUP3 ADD DUP1 PUSH1 0x40 MSTORE POP DUP2 ADD SWAP1 PUSH2 0x511 SWAP2 SWAP1 PUSH2 0xFF0 JUMP JUMPDEST POP POP POP POP JUMP JUMPDEST PUSH1 0x40 MLOAD PUSH4 0x95EA7B3 PUSH1 0xE0 SHL DUP2 MSTORE PUSH1 0x1 PUSH1 0x1 PUSH1 0xA0 SHL SUB DUP7 AND SWAP1 PUSH4 0x95EA7B3 SWAP1 PUSH2 0x559 SWAP1 PUSH20 0xD9E1CE17F2641F24AE83637AB66A2CCA9C378B9F SWAP1 DUP8 SWAP1 PUSH1 0x4 ADD PUSH2 0x10F2 JUMP JUMPDEST PUSH1 0x20 PUSH1 0x40 MLOAD DUP1 DUP4 SUB DUP2 PUSH1 0x0 DUP8 DUP1 EXTCODESIZE ISZERO DUP1 ISZERO PUSH2 0x573 JUMPI PUSH1 0x0 DUP1 REVERT JUMPDEST POP GAS CALL ISZERO DUP1 ISZERO PUSH2 0x587 JUMPI RETURNDATASIZE PUSH1 0x0 DUP1 RETURNDATACOPY RETURNDATASIZE PUSH1 0x0 REVERT JUMPDEST POP POP POP POP PUSH1 0x40 MLOAD RETURNDATASIZE PUSH1 0x1F NOT PUSH1 0x1F DUP3 ADD AND DUP3 ADD DUP1 PUSH1 0x40 MSTORE POP DUP2 ADD SWAP1 PUSH2 0x5AB SWAP2 SWAP1 PUSH2 0xFF0 JUMP JUMPDEST POP PUSH1 0x60 PUSH1 0x1 PUSH1 0x1 PUSH1 0xA0 SHL SUB DUP7 AND PUSH20 0xC02AAA39B223FE8D0A0E5C4F27EAD9083C756CC2 EQ DUP1 PUSH2 0x5F5 JUMPI POP PUSH1 0x1 PUSH1 0x1 PUSH1 0xA0 SHL SUB DUP6 AND PUSH20 0xC02AAA39B223FE8D0A0E5C4F27EAD9083C756CC2 EQ JUMPDEST ISZERO PUSH2 0x6A3 JUMPI PUSH1 0x40 DUP1 MLOAD PUSH1 0x2 DUP1 DUP3 MSTORE PUSH1 0x60 DUP3 ADD DUP4 MSTORE SWAP1 SWAP2 PUSH1 0x20 DUP4 ADD SWAP1 DUP1 CALLDATASIZE DUP4 CALLDATACOPY ADD SWAP1 POP POP SWAP1 POP DUP6 DUP2 PUSH1 0x0 DUP2 MLOAD DUP2 LT PUSH2 0x63C JUMPI PUSH4 0x4E487B71 PUSH1 0xE0 SHL PUSH1 0x0 MSTORE PUSH1 0x32 PUSH1 0x4 MSTORE PUSH1 0x24 PUSH1 0x0 REVERT JUMPDEST PUSH1 0x20 MUL PUSH1 0x20 ADD ADD SWAP1 PUSH1 0x1 PUSH1 0x1 PUSH1 0xA0 SHL SUB AND SWAP1 DUP2 PUSH1 0x1 PUSH1 0x1 PUSH1 0xA0 SHL SUB AND DUP2 MSTORE POP POP DUP5 DUP2 PUSH1 0x1 DUP2 MLOAD DUP2 LT PUSH2 0x67E JUMPI PUSH4 0x4E487B71 PUSH1 0xE0 SHL PUSH1 0x0 MSTORE PUSH1 0x32 PUSH1 0x4 MSTORE PUSH1 0x24 PUSH1 0x0 REVERT JUMPDEST PUSH1 0x20 MUL PUSH1 0x20 ADD ADD SWAP1 PUSH1 0x1 PUSH1 0x1 PUSH1 0xA0 SHL SUB AND SWAP1 DUP2 PUSH1 0x1 PUSH1 0x1 PUSH1 0xA0 SHL SUB AND DUP2 MSTORE POP POP PUSH2 0x79F JUMP JUMPDEST PUSH1 0x40 DUP1 MLOAD PUSH1 0x3 DUP1 DUP3 MSTORE PUSH1 0x80 DUP3 ADD SWAP1 SWAP3 MSTORE SWAP1 PUSH1 0x20 DUP3 ADD PUSH1 0x60 DUP1 CALLDATASIZE DUP4 CALLDATACOPY ADD SWAP1 POP POP SWAP1 POP DUP6 DUP2 PUSH1 0x0 DUP2 MLOAD DUP2 LT PUSH2 0x6E6 JUMPI PUSH4 0x4E487B71 PUSH1 0xE0 SHL PUSH1 0x0 MSTORE PUSH1 0x32 PUSH1 0x4 MSTORE PUSH1 0x24 PUSH1 0x0 REVERT JUMPDEST PUSH1 0x20 MUL PUSH1 0x20 ADD ADD SWAP1 PUSH1 0x1 PUSH1 0x1 PUSH1 0xA0 SHL SUB AND SWAP1 DUP2 PUSH1 0x1 PUSH1 0x1 PUSH1 0xA0 SHL SUB AND DUP2 MSTORE POP POP PUSH20 0xC02AAA39B223FE8D0A0E5C4F27EAD9083C756CC2 DUP2 PUSH1 0x1 DUP2 MLOAD DUP2 LT PUSH2 0x73C JUMPI PUSH4 0x4E487B71 PUSH1 0xE0 SHL PUSH1 0x0 MSTORE PUSH1 0x32 PUSH1 0x4 MSTORE PUSH1 0x24 PUSH1 0x0 REVERT JUMPDEST PUSH1 0x20 MUL PUSH1 0x20 ADD ADD SWAP1 PUSH1 0x1 PUSH1 0x1 PUSH1 0xA0 SHL SUB AND SWAP1 DUP2 PUSH1 0x1 PUSH1 0x1 PUSH1 0xA0 SHL SUB AND DUP2 MSTORE POP POP DUP5 DUP2 PUSH1 0x2 DUP2 MLOAD DUP2 LT PUSH2 0x77E JUMPI PUSH4 0x4E487B71 PUSH1 0xE0 SHL PUSH1 0x0 MSTORE PUSH1 0x32 PUSH1 0x4 MSTORE PUSH1 0x24 PUSH1 0x0 REVERT JUMPDEST PUSH1 0x20 MUL PUSH1 0x20 ADD ADD SWAP1 PUSH1 0x1 PUSH1 0x1 PUSH1 0xA0 SHL SUB AND SWAP1 DUP2 PUSH1 0x1 PUSH1 0x1 PUSH1 0xA0 SHL SUB AND DUP2 MSTORE POP POP JUMPDEST PUSH1 0x40 MLOAD PUSH4 0x38ED1739 PUSH1 0xE0 SHL DUP2 MSTORE PUSH20 0xD9E1CE17F2641F24AE83637AB66A2CCA9C378B9F SWAP1 PUSH4 0x38ED1739 SWAP1 PUSH2 0x7DE SWAP1 DUP8 SWAP1 DUP8 SWAP1 DUP7 SWAP1 DUP9 SWAP1 TIMESTAMP SWAP1 PUSH1 0x4 ADD PUSH2 0x12F5 JUMP JUMPDEST PUSH1 0x0 PUSH1 0x40 MLOAD DUP1 DUP4 SUB DUP2 PUSH1 0x0 DUP8 DUP1 EXTCODESIZE ISZERO DUP1 ISZERO PUSH2 0x7F8 JUMPI PUSH1 0x0 DUP1 REVERT JUMPDEST POP GAS CALL ISZERO DUP1 ISZERO PUSH2 0x80C JUMPI RETURNDATASIZE PUSH1 0x0 DUP1 RETURNDATACOPY RETURNDATASIZE PUSH1 0x0 REVERT JUMPDEST POP POP POP POP PUSH1 0x40 MLOAD RETURNDATASIZE PUSH1 0x0 DUP3 RETURNDATACOPY PUSH1 0x1F RETURNDATASIZE SWAP1 DUP2 ADD PUSH1 0x1F NOT AND DUP3 ADD PUSH1 0x40 MSTORE PUSH2 0x834 SWAP2 SWAP1 DUP2 ADD SWAP1 PUSH2 0xF36 JUMP JUMPDEST POP POP POP POP POP POP POP JUMP JUMPDEST PUSH2 0x847 ADDRESS DUP7 PUSH2 0xA67 JUMP JUMPDEST DUP5 GT ISZERO PUSH2 0x86F JUMPI PUSH1 0x40 MLOAD PUSH3 0x461BCD PUSH1 0xE5 SHL DUP2 MSTORE PUSH1 0x4 ADD PUSH2 0x866 SWAP1 PUSH2 0x11CE JUMP JUMPDEST PUSH1 0x40 MLOAD DUP1 SWAP2 SUB SWAP1 REVERT JUMPDEST PUSH1 0x40 MLOAD PUSH4 0x2E1A7D4D PUSH1 0xE0 SHL DUP2 MSTORE PUSH20 0xC02AAA39B223FE8D0A0E5C4F27EAD9083C756CC2 SWAP1 PUSH4 0x2E1A7D4D SWAP1 PUSH2 0x8AE SWAP1 PUSH8 0x3782DACE9D900000 SWAP1 PUSH1 0x4 ADD PUSH2 0x112A JUMP JUMPDEST PUSH1 0x0 PUSH1 0x40 MLOAD DUP1 DUP4 SUB DUP2 PUSH1 0x0 DUP8 DUP1 EXTCODESIZE ISZERO DUP1 ISZERO PUSH2 0x8C8 JUMPI PUSH1 0x0 DUP1 REVERT JUMPDEST POP GAS CALL ISZERO DUP1 ISZERO PUSH2 0x8DC JUMPI RETURNDATASIZE PUSH1 0x0 DUP1 RETURNDATACOPY RETURNDATASIZE PUSH1 0x0 REVERT JUMPDEST POP POP PUSH1 0x2 DUP1 SLOAD PUSH1 0x3 SLOAD PUSH1 0x40 MLOAD PUSH4 0x204B01B PUSH1 0xE0 SHL DUP2 MSTORE PUSH1 0x1 PUSH1 0x1 PUSH1 0xA0 SHL SUB SWAP3 DUP4 AND SWAP6 POP PUSH4 0x204B01B SWAP5 POP PUSH8 0x3782DACE9D900000 SWAP4 PUSH2 0x923 SWAP4 SWAP1 SWAP3 DUP4 SWAP3 SWAP2 AND SWAP1 PUSH1 0x4 ADD PUSH2 0x110B JUMP JUMPDEST PUSH1 0x0 PUSH1 0x40 MLOAD DUP1 DUP4 SUB DUP2 DUP6 DUP9 DUP1 EXTCODESIZE ISZERO DUP1 ISZERO PUSH2 0x93C JUMPI PUSH1 0x0 DUP1 REVERT JUMPDEST POP GAS CALL ISZERO DUP1 ISZERO PUSH2 0x950 JUMPI RETURNDATASIZE PUSH1 0x0 DUP1 RETURNDATACOPY RETURNDATASIZE PUSH1 0x0 REVERT JUMPDEST POP POP POP POP POP PUSH20 0xC02AAA39B223FE8D0A0E5C4F27EAD9083C756CC2 PUSH1 0x1 PUSH1 0x1 PUSH1 0xA0 SHL SUB AND PUSH4 0xD0E30DB0 PUSH8 0x3782DACE9D900000 PUSH1 0x40 MLOAD DUP3 PUSH4 0xFFFFFFFF AND PUSH1 0xE0 SHL DUP2 MSTORE PUSH1 0x4 ADD PUSH1 0x0 PUSH1 0x40 MLOAD DUP1 DUP4 SUB DUP2 DUP6 DUP9 DUP1 EXTCODESIZE ISZERO DUP1 ISZERO PUSH2 0x9AC JUMPI PUSH1 0x0 DUP1 REVERT JUMPDEST POP GAS CALL ISZERO DUP1 ISZERO PUSH2 0x9C0 JUMPI RETURNDATASIZE PUSH1 0x0 DUP1 RETURNDATACOPY RETURNDATASIZE PUSH1 0x0 REVERT JUMPDEST POP POP POP POP POP PUSH1 0x0 PUSH2 0x9DA DUP5 DUP7 PUSH2 0xB20 SWAP1 SWAP2 SWAP1 PUSH4 0xFFFFFFFF AND JUMP JUMPDEST SWAP1 POP PUSH2 0x9EE PUSH2 0x9E7 PUSH2 0xB4F JUMP JUMPDEST DUP8 DUP4 PUSH2 0xBBE JUMP JUMPDEST POP POP POP POP POP POP JUMP JUMPDEST PUSH2 0x9FE PUSH2 0xB4F JUMP JUMPDEST PUSH1 0x1 PUSH1 0x1 PUSH1 0xA0 SHL SUB AND PUSH4 0x5CFFE9DE DUP6 DUP6 DUP6 DUP6 PUSH1 0x40 MLOAD DUP6 PUSH4 0xFFFFFFFF AND PUSH1 0xE0 SHL DUP2 MSTORE PUSH1 0x4 ADD PUSH2 0xA2F SWAP5 SWAP4 SWAP3 SWAP2 SWAP1 PUSH2 0x109E JUMP JUMPDEST PUSH1 0x0 PUSH1 0x40 MLOAD DUP1 DUP4 SUB DUP2 PUSH1 0x0 DUP8 DUP1 EXTCODESIZE ISZERO DUP1 ISZERO PUSH2 0xA49 JUMPI PUSH1 0x0 DUP1 REVERT JUMPDEST POP GAS CALL ISZERO DUP1 ISZERO PUSH2 0xA5D JUMPI RETURNDATASIZE PUSH1 0x0 DUP1 RETURNDATACOPY RETURNDATASIZE PUSH1 0x0 REVERT JUMPDEST POP POP POP POP POP POP POP POP JUMP JUMPDEST PUSH1 0x0 PUSH2 0xA71 PUSH2 0xC7B JUMP JUMPDEST PUSH1 0x1 PUSH1 0x1 PUSH1 0xA0 SHL SUB AND DUP3 PUSH1 0x1 PUSH1 0x1 PUSH1 0xA0 SHL SUB AND EQ ISZERO PUSH2 0xA9B JUMPI POP PUSH1 0x1 PUSH1 0x1 PUSH1 0xA0 SHL SUB DUP3 AND BALANCE PUSH2 0xB1A JUMP JUMPDEST PUSH1 0x40 MLOAD PUSH4 0x70A08231 PUSH1 0xE0 SHL DUP2 MSTORE PUSH1 0x1 PUSH1 0x1 PUSH1 0xA0 SHL SUB DUP4 AND SWAP1 PUSH4 0x70A08231 SWAP1 PUSH2 0xAC7 SWAP1 DUP7 SWAP1 PUSH1 0x4 ADD PUSH2 0x108A JUMP JUMPDEST PUSH1 0x20 PUSH1 0x40 MLOAD DUP1 DUP4 SUB DUP2 DUP7 DUP1 EXTCODESIZE ISZERO DUP1 ISZERO PUSH2 0xADF JUMPI PUSH1 0x0 DUP1 REVERT JUMPDEST POP GAS STATICCALL ISZERO DUP1 ISZERO PUSH2 0xAF3 JUMPI RETURNDATASIZE PUSH1 0x0 DUP1 RETURNDATACOPY RETURNDATASIZE PUSH1 0x0 REVERT JUMPDEST POP POP POP POP PUSH1 0x40 MLOAD RETURNDATASIZE PUSH1 0x1F NOT PUSH1 0x1F DUP3 ADD AND DUP3 ADD DUP1 PUSH1 0x40 MSTORE POP DUP2 ADD SWAP1 PUSH2 0xB17 SWAP2 SWAP1 PUSH2 0x1010 JUMP JUMPDEST SWAP1 POP JUMPDEST SWAP3 SWAP2 POP POP JUMP JUMPDEST PUSH1 0x0 DUP1 PUSH2 0xB2D DUP4 DUP6 PUSH2 0x1331 JUMP JUMPDEST SWAP1 POP DUP4 DUP2 LT ISZERO PUSH2 0xB17 JUMPI PUSH1 0x40 MLOAD PUSH3 0x461BCD PUSH1 0xE5 SHL DUP2 MSTORE PUSH1 0x4 ADD PUSH2 0x866 SWAP1 PUSH2 0x1133 JUMP JUMPDEST PUSH1 0x0 DUP1 DUP1 DUP1 PUSH2 0xB5C PUSH2 0xC93 JUMP JUMPDEST DUP2 MSTORE PUSH1 0x20 DUP2 ADD SWAP2 SWAP1 SWAP2 MSTORE PUSH1 0x40 ADD PUSH1 0x0 KECCAK256 SLOAD PUSH1 0x1 PUSH1 0x1 PUSH1 0xA0 SHL SUB AND EQ ISZERO PUSH2 0xB94 JUMPI PUSH1 0x40 MLOAD PUSH3 0x461BCD PUSH1 0xE5 SHL DUP2 MSTORE PUSH1 0x4 ADD PUSH2 0x866 SWAP1 PUSH2 0x121C JUMP JUMPDEST PUSH1 0x0 DUP1 PUSH2 0xB9F PUSH2 0xC93 JUMP JUMPDEST DUP2 MSTORE PUSH1 0x20 DUP2 ADD SWAP2 SWAP1 SWAP2 MSTORE PUSH1 0x40 ADD PUSH1 0x0 KECCAK256 SLOAD PUSH1 0x1 PUSH1 0x1 PUSH1 0xA0 SHL SUB AND SWAP1 POP SWAP1 JUMP JUMPDEST PUSH2 0xBC6 PUSH2 0xC7B JUMP JUMPDEST PUSH1 0x1 PUSH1 0x1 PUSH1 0xA0 SHL SUB AND DUP3 PUSH1 0x1 PUSH1 0x1 PUSH1 0xA0 SHL SUB AND EQ ISZERO PUSH2 0xC67 JUMPI PUSH1 0x0 DUP4 PUSH1 0x1 PUSH1 0x1 PUSH1 0xA0 SHL SUB AND DUP3 PUSH1 0x40 MLOAD PUSH2 0xBF8 SWAP1 PUSH2 0x1087 JUMP JUMPDEST PUSH1 0x0 PUSH1 0x40 MLOAD DUP1 DUP4 SUB DUP2 DUP6 DUP8 GAS CALL SWAP3 POP POP POP RETURNDATASIZE DUP1 PUSH1 0x0 DUP2 EQ PUSH2 0xC35 JUMPI PUSH1 0x40 MLOAD SWAP2 POP PUSH1 0x1F NOT PUSH1 0x3F RETURNDATASIZE ADD AND DUP3 ADD PUSH1 0x40 MSTORE RETURNDATASIZE DUP3 MSTORE RETURNDATASIZE PUSH1 0x0 PUSH1 0x20 DUP5 ADD RETURNDATACOPY PUSH2 0xC3A JUMP JUMPDEST PUSH1 0x60 SWAP2 POP JUMPDEST POP SWAP1 SWAP2 POP POP PUSH1 0x1 DUP2 ISZERO ISZERO EQ PUSH2 0xC61 JUMPI PUSH1 0x40 MLOAD PUSH3 0x461BCD PUSH1 0xE5 SHL DUP2 MSTORE PUSH1 0x4 ADD PUSH2 0x866 SWAP1 PUSH2 0x119F JUMP JUMPDEST POP PUSH2 0x48A JUMP JUMPDEST PUSH2 0x48A PUSH1 0x1 PUSH1 0x1 PUSH1 0xA0 SHL SUB DUP4 AND DUP5 DUP4 PUSH2 0xC97 JUMP JUMPDEST PUSH20 0xEEEEEEEEEEEEEEEEEEEEEEEEEEEEEEEEEEEEEEEE SWAP1 JUMP JUMPDEST CHAINID SWAP1 JUMP JUMPDEST PUSH2 0x48A DUP4 PUSH4 0xA9059CBB PUSH1 0xE0 SHL DUP5 DUP5 PUSH1 0x40 MLOAD PUSH1 0x24 ADD PUSH2 0xCB6 SWAP3 SWAP2 SWAP1 PUSH2 0x10F2 JUMP JUMPDEST PUSH1 0x40 DUP1 MLOAD PUSH1 0x1F NOT DUP2 DUP5 SUB ADD DUP2 MSTORE SWAP2 SWAP1 MSTORE PUSH1 0x20 DUP2 ADD DUP1 MLOAD PUSH1 0x1 PUSH1 0x1 PUSH1 0xE0 SHL SUB AND PUSH1 0x1 PUSH1 0x1 PUSH1 0xE0 SHL SUB NOT SWAP1 SWAP4 AND SWAP3 SWAP1 SWAP3 OR SWAP1 SWAP2 MSTORE PUSH2 0xCFA DUP3 PUSH1 0x1 PUSH1 0x1 PUSH1 0xA0 SHL SUB AND PUSH2 0xDCC JUMP JUMPDEST PUSH2 0xD16 JUMPI PUSH1 0x40 MLOAD PUSH3 0x461BCD PUSH1 0xE5 SHL DUP2 MSTORE PUSH1 0x4 ADD PUSH2 0x866 SWAP1 PUSH2 0x129D JUMP JUMPDEST PUSH1 0x0 DUP1 DUP4 PUSH1 0x1 PUSH1 0x1 PUSH1 0xA0 SHL SUB AND DUP4 PUSH1 0x40 MLOAD PUSH2 0xD31 SWAP2 SWAP1 PUSH2 0x106B JUMP JUMPDEST PUSH1 0x0 PUSH1 0x40 MLOAD DUP1 DUP4 SUB DUP2 PUSH1 0x0 DUP7 GAS CALL SWAP2 POP POP RETURNDATASIZE DUP1 PUSH1 0x0 DUP2 EQ PUSH2 0xD6E JUMPI PUSH1 0x40 MLOAD SWAP2 POP PUSH1 0x1F NOT PUSH1 0x3F RETURNDATASIZE ADD AND DUP3 ADD PUSH1 0x40 MSTORE RETURNDATASIZE DUP3 MSTORE RETURNDATASIZE PUSH1 0x0 PUSH1 0x20 DUP5 ADD RETURNDATACOPY PUSH2 0xD73 JUMP JUMPDEST PUSH1 0x60 SWAP2 POP JUMPDEST POP SWAP2 POP SWAP2 POP DUP2 PUSH2 0xD95 JUMPI PUSH1 0x40 MLOAD PUSH3 0x461BCD PUSH1 0xE5 SHL DUP2 MSTORE PUSH1 0x4 ADD PUSH2 0x866 SWAP1 PUSH2 0x116A JUMP JUMPDEST DUP1 MLOAD ISZERO PUSH2 0x511 JUMPI DUP1 DUP1 PUSH1 0x20 ADD SWAP1 MLOAD DUP2 ADD SWAP1 PUSH2 0xDB0 SWAP2 SWAP1 PUSH2 0xFF0 JUMP JUMPDEST PUSH2 0x511 JUMPI PUSH1 0x40 MLOAD PUSH3 0x461BCD PUSH1 0xE5 SHL DUP2 MSTORE PUSH1 0x4 ADD PUSH2 0x866 SWAP1 PUSH2 0x1253 JUMP JUMPDEST DUP1 EXTCODESIZE ISZERO ISZERO JUMPDEST SWAP2 SWAP1 POP JUMP JUMPDEST DUP1 CALLDATALOAD PUSH1 0x1 PUSH1 0x1 PUSH1 0xA0 SHL SUB DUP2 AND DUP2 EQ PUSH2 0xDD1 JUMPI PUSH1 0x0 DUP1 REVERT JUMPDEST PUSH1 0x0 DUP1 PUSH1 0x0 PUSH1 0x60 DUP5 DUP7 SUB SLT ISZERO PUSH2 0xE01 JUMPI DUP3 DUP4 REVERT JUMPDEST PUSH2 0xE0A DUP5 PUSH2 0xDD6 JUMP JUMPDEST SWAP3 POP PUSH2 0xE18 PUSH1 0x20 DUP6 ADD PUSH2 0xDD6 JUMP JUMPDEST SWAP2 POP PUSH1 0x40 DUP5 ADD CALLDATALOAD SWAP1 POP SWAP3 POP SWAP3 POP SWAP3 JUMP JUMPDEST PUSH1 0x0 DUP1 PUSH1 0x0 DUP1 PUSH1 0x0 PUSH1 0xA0 DUP7 DUP9 SUB SLT ISZERO PUSH2 0xE3F JUMPI DUP1 DUP2 REVERT JUMPDEST PUSH2 0xE48 DUP7 PUSH2 0xDD6 JUMP JUMPDEST SWAP5 POP PUSH2 0xE56 PUSH1 0x20 DUP8 ADD PUSH2 0xDD6 JUMP JUMPDEST SWAP4 POP PUSH1 0x40 DUP7 ADD CALLDATALOAD SWAP3 POP PUSH1 0x60 DUP7 ADD CALLDATALOAD SWAP2 POP PUSH2 0xE72 PUSH1 0x80 DUP8 ADD PUSH2 0xDD6 JUMP JUMPDEST SWAP1 POP SWAP3 SWAP6 POP SWAP3 SWAP6 SWAP1 SWAP4 POP JUMP JUMPDEST PUSH1 0x0 DUP1 PUSH1 0x40 DUP4 DUP6 SUB SLT ISZERO PUSH2 0xE90 JUMPI DUP2 DUP3 REVERT JUMPDEST PUSH2 0xE99 DUP4 PUSH2 0xDD6 JUMP JUMPDEST SWAP5 PUSH1 0x20 SWAP4 SWAP1 SWAP4 ADD CALLDATALOAD SWAP4 POP POP POP JUMP JUMPDEST PUSH1 0x0 DUP1 PUSH1 0x0 DUP1 PUSH1 0x0 PUSH1 0x80 DUP7 DUP9 SUB SLT ISZERO PUSH2 0xEBE JUMPI DUP1 DUP2 REVERT JUMPDEST PUSH2 0xEC7 DUP7 PUSH2 0xDD6 JUMP JUMPDEST SWAP5 POP PUSH1 0x20 DUP7 ADD CALLDATALOAD SWAP4 POP PUSH1 0x40 DUP7 ADD CALLDATALOAD SWAP3 POP PUSH1 0x60 DUP7 ADD CALLDATALOAD PUSH8 0xFFFFFFFFFFFFFFFF DUP1 DUP3 GT ISZERO PUSH2 0xEF1 JUMPI DUP3 DUP4 REVERT JUMPDEST DUP2 DUP9 ADD SWAP2 POP DUP9 PUSH1 0x1F DUP4 ADD SLT PUSH2 0xF04 JUMPI DUP3 DUP4 REVERT JUMPDEST DUP2 CALLDATALOAD DUP2 DUP2 GT ISZERO PUSH2 0xF12 JUMPI DUP4 DUP5 REVERT JUMPDEST DUP10 PUSH1 0x20 DUP3 DUP6 ADD ADD GT ISZERO PUSH2 0xF23 JUMPI DUP4 DUP5 REVERT JUMPDEST SWAP7 SWAP10 SWAP6 SWAP9 POP SWAP4 SWAP7 POP PUSH1 0x20 ADD SWAP5 SWAP4 SWAP3 POP POP POP JUMP JUMPDEST PUSH1 0x0 PUSH1 0x20 DUP1 DUP4 DUP6 SUB SLT ISZERO PUSH2 0xF48 JUMPI DUP2 DUP3 REVERT JUMPDEST DUP3 MLOAD PUSH8 0xFFFFFFFFFFFFFFFF DUP1 DUP3 GT ISZERO PUSH2 0xF5F JUMPI DUP4 DUP5 REVERT JUMPDEST DUP2 DUP6 ADD SWAP2 POP DUP6 PUSH1 0x1F DUP4 ADD SLT PUSH2 0xF72 JUMPI DUP4 DUP5 REVERT JUMPDEST DUP2 MLOAD DUP2 DUP2 GT ISZERO PUSH2 0xF84 JUMPI PUSH2 0xF84 PUSH2 0x13A2 JUMP JUMPDEST DUP4 DUP2 MUL PUSH1 0x40 MLOAD DUP6 DUP3 DUP3 ADD ADD DUP2 DUP2 LT DUP6 DUP3 GT OR ISZERO PUSH2 0xFA3 JUMPI PUSH2 0xFA3 PUSH2 0x13A2 JUMP JUMPDEST PUSH1 0x40 MSTORE DUP3 DUP2 MSTORE DUP6 DUP2 ADD SWAP4 POP DUP5 DUP7 ADD DUP3 DUP7 ADD DUP8 ADD DUP11 LT ISZERO PUSH2 0xFC1 JUMPI DUP8 DUP9 REVERT JUMPDEST DUP8 SWAP6 POP JUMPDEST DUP4 DUP7 LT ISZERO PUSH2 0xFE3 JUMPI DUP1 MLOAD DUP6 MSTORE PUSH1 0x1 SWAP6 SWAP1 SWAP6 ADD SWAP5 SWAP4 DUP7 ADD SWAP4 DUP7 ADD PUSH2 0xFC5 JUMP JUMPDEST POP SWAP9 SWAP8 POP POP POP POP POP POP POP POP JUMP JUMPDEST PUSH1 0x0 PUSH1 0x20 DUP3 DUP5 SUB SLT ISZERO PUSH2 0x1001 JUMPI DUP1 DUP2 REVERT JUMPDEST DUP2 MLOAD DUP1 ISZERO ISZERO DUP2 EQ PUSH2 0xB17 JUMPI DUP2 DUP3 REVERT JUMPDEST PUSH1 0x0 PUSH1 0x20 DUP3 DUP5 SUB SLT ISZERO PUSH2 0x1021 JUMPI DUP1 DUP2 REVERT JUMPDEST POP MLOAD SWAP2 SWAP1 POP JUMP JUMPDEST PUSH1 0x0 DUP2 MLOAD DUP1 DUP5 MSTORE PUSH1 0x20 DUP1 DUP6 ADD SWAP5 POP DUP1 DUP5 ADD DUP4 JUMPDEST DUP4 DUP2 LT ISZERO PUSH2 0x1060 JUMPI DUP2 MLOAD PUSH1 0x1 PUSH1 0x1 PUSH1 0xA0 SHL SUB AND DUP8 MSTORE SWAP6 DUP3 ADD SWAP6 SWAP1 DUP3 ADD SWAP1 PUSH1 0x1 ADD PUSH2 0x103B JUMP JUMPDEST POP SWAP5 SWAP6 SWAP5 POP POP POP POP POP JUMP JUMPDEST PUSH1 0x0 DUP3 MLOAD PUSH2 0x107D DUP2 DUP5 PUSH1 0x20 DUP8 ADD PUSH2 0x1360 JUMP JUMPDEST SWAP2 SWAP1 SWAP2 ADD SWAP3 SWAP2 POP POP JUMP JUMPDEST SWAP1 JUMP JUMPDEST PUSH1 0x1 PUSH1 0x1 PUSH1 0xA0 SHL SUB SWAP2 SWAP1 SWAP2 AND DUP2 MSTORE PUSH1 0x20 ADD SWAP1 JUMP JUMPDEST PUSH1 0x0 PUSH1 0x1 DUP1 PUSH1 0xA0 SHL SUB DUP1 DUP8 AND DUP4 MSTORE DUP1 DUP7 AND PUSH1 0x20 DUP5 ADD MSTORE POP DUP4 PUSH1 0x40 DUP4 ADD MSTORE PUSH1 0x80 PUSH1 0x60 DUP4 ADD MSTORE DUP3 MLOAD DUP1 PUSH1 0x80 DUP5 ADD MSTORE PUSH2 0x10DB DUP2 PUSH1 0xA0 DUP6 ADD PUSH1 0x20 DUP8 ADD PUSH2 0x1360 JUMP JUMPDEST PUSH1 0x1F ADD PUSH1 0x1F NOT AND SWAP2 SWAP1 SWAP2 ADD PUSH1 0xA0 ADD SWAP6 SWAP5 POP POP POP POP POP JUMP JUMPDEST PUSH1 0x1 PUSH1 0x1 PUSH1 0xA0 SHL SUB SWAP3 SWAP1 SWAP3 AND DUP3 MSTORE PUSH1 0x20 DUP3 ADD MSTORE PUSH1 0x40 ADD SWAP1 JUMP JUMPDEST SWAP3 DUP4 MSTORE PUSH1 0x20 DUP4 ADD SWAP2 SWAP1 SWAP2 MSTORE PUSH1 0x1 PUSH1 0x1 PUSH1 0xA0 SHL SUB AND PUSH1 0x40 DUP3 ADD MSTORE PUSH1 0x60 ADD SWAP1 JUMP JUMPDEST SWAP1 DUP2 MSTORE PUSH1 0x20 ADD SWAP1 JUMP JUMPDEST PUSH1 0x20 DUP1 DUP3 MSTORE PUSH1 0x1B SWAP1 DUP3 ADD MSTORE PUSH32 0x536166654D6174683A206164646974696F6E206F766572666C6F770000000000 PUSH1 0x40 DUP3 ADD MSTORE PUSH1 0x60 ADD SWAP1 JUMP JUMPDEST PUSH1 0x20 DUP1 DUP3 MSTORE DUP2 DUP2 ADD MSTORE PUSH32 0x5361666545524332303A206C6F772D6C6576656C2063616C6C206661696C6564 PUSH1 0x40 DUP3 ADD MSTORE PUSH1 0x60 ADD SWAP1 JUMP JUMPDEST PUSH1 0x20 DUP1 DUP3 MSTORE PUSH1 0x15 SWAP1 DUP3 ADD MSTORE PUSH21 0x86DEEAD8C8DC4EE840E8E4C2DCE6CCCAE4408AA89 PUSH1 0x5B SHL PUSH1 0x40 DUP3 ADD MSTORE PUSH1 0x60 ADD SWAP1 JUMP JUMPDEST PUSH1 0x20 DUP1 DUP3 MSTORE PUSH1 0x2E SWAP1 DUP3 ADD MSTORE PUSH32 0x496E76616C69642062616C616E63652C207761732074686520666C6173684C6F PUSH1 0x40 DUP3 ADD MSTORE PUSH14 0x616E207375636365737366756C3F PUSH1 0x90 SHL PUSH1 0x60 DUP3 ADD MSTORE PUSH1 0x80 ADD SWAP1 JUMP JUMPDEST PUSH1 0x20 DUP1 DUP3 MSTORE PUSH1 0x1E SWAP1 DUP3 ADD MSTORE PUSH32 0x556E696C656E6456313A20436861696E206E6F7420737570706F727465640000 PUSH1 0x40 DUP3 ADD MSTORE PUSH1 0x60 ADD SWAP1 JUMP JUMPDEST PUSH1 0x20 DUP1 DUP3 MSTORE PUSH1 0x2A SWAP1 DUP3 ADD MSTORE PUSH32 0x5361666545524332303A204552433230206F7065726174696F6E20646964206E PUSH1 0x40 DUP3 ADD MSTORE PUSH10 0x1BDD081CDD58D8D95959 PUSH1 0xB2 SHL PUSH1 0x60 DUP3 ADD MSTORE PUSH1 0x80 ADD SWAP1 JUMP JUMPDEST PUSH1 0x20 DUP1 DUP3 MSTORE PUSH1 0x1F SWAP1 DUP3 ADD MSTORE PUSH32 0x5361666545524332303A2063616C6C20746F206E6F6E2D636F6E747261637400 PUSH1 0x40 DUP3 ADD MSTORE PUSH1 0x60 ADD SWAP1 JUMP JUMPDEST PUSH1 0x0 DUP4 DUP3 MSTORE PUSH1 0x40 PUSH1 0x20 DUP4 ADD MSTORE PUSH2 0x12ED PUSH1 0x40 DUP4 ADD DUP5 PUSH2 0x1028 JUMP JUMPDEST SWAP5 SWAP4 POP POP POP POP JUMP JUMPDEST PUSH1 0x0 DUP7 DUP3 MSTORE DUP6 PUSH1 0x20 DUP4 ADD MSTORE PUSH1 0xA0 PUSH1 0x40 DUP4 ADD MSTORE PUSH2 0x1314 PUSH1 0xA0 DUP4 ADD DUP7 PUSH2 0x1028 JUMP JUMPDEST PUSH1 0x1 PUSH1 0x1 PUSH1 0xA0 SHL SUB SWAP5 SWAP1 SWAP5 AND PUSH1 0x60 DUP4 ADD MSTORE POP PUSH1 0x80 ADD MSTORE SWAP4 SWAP3 POP POP POP JUMP JUMPDEST PUSH1 0x0 DUP3 NOT DUP3 GT ISZERO PUSH2 0x1344 JUMPI PUSH2 0x1344 PUSH2 0x138C JUMP JUMPDEST POP ADD SWAP1 JUMP JUMPDEST PUSH1 0x0 DUP3 DUP3 LT ISZERO PUSH2 0x135B JUMPI PUSH2 0x135B PUSH2 0x138C JUMP JUMPDEST POP SUB SWAP1 JUMP JUMPDEST PUSH1 0x0 JUMPDEST DUP4 DUP2 LT ISZERO PUSH2 0x137B JUMPI DUP2 DUP2 ADD MLOAD DUP4 DUP3 ADD MSTORE PUSH1 0x20 ADD PUSH2 0x1363 JUMP JUMPDEST DUP4 DUP2 GT ISZERO PUSH2 0x511 JUMPI POP POP PUSH1 0x0 SWAP2 ADD MSTORE JUMP JUMPDEST PUSH4 0x4E487B71 PUSH1 0xE0 SHL PUSH1 0x0 MSTORE PUSH1 0x11 PUSH1 0x4 MSTORE PUSH1 0x24 PUSH1 0x0 REVERT JUMPDEST PUSH4 0x4E487B71 PUSH1 0xE0 SHL PUSH1 0x0 MSTORE PUSH1 0x41 PUSH1 0x4 MSTORE PUSH1 0x24 PUSH1 0x0 REVERT INVALID LOG2 PUSH5 0x6970667358 0x22 SLT KECCAK256 PUSH10 0xA39F42FE102FA42875B6 EXTCODESIZE 0x5C 0xB8 CALLER 0xAE COINBASE ADDRESS GASLIMIT 0x48 SELFBALANCE GASPRICE PUSH8 0x486BC05275E64FBE SWAP6 PUSH5 0x736F6C6343 STOP ADDMOD STOP STOP CALLER "
		},
		"gasEstimates": {
			"creation": {
				"codeDepositCost": "1020400",
				"executionCost": "188528",
				"totalCost": "1208928"
			},
			"external": {
				"executeOperation(address,uint256,uint256,bytes)": "infinite",
				"fallback()": "165",
				"flashloan(address,uint256)": "infinite",
				"getAmountOutMin(address,address,uint256)": "infinite",
				"swap(address,address,uint256,uint256,address)": "infinite",
				"unilendFlashLoanCore()": "1137",
				"withdraw()": "infinite",
				"withdrawToken(address,uint256)": "infinite"
			}
		},
		"methodIdentifiers": {
			"executeOperation(address,uint256,uint256,bytes)": "ee872558",
			"fallback()": "552079dc",
			"flashloan(address,uint256)": "8e5f5f57",
			"getAmountOutMin(address,address,uint256)": "3c50eec1",
			"swap(address,address,uint256,uint256,address)": "d5bcb9b5",
			"unilendFlashLoanCore()": "5c0e6c40",
			"withdraw()": "3ccfd60b",
			"withdrawToken(address,uint256)": "9e281a98"
		}
	},
	"abi": [
		{
			"inputs": [],
			"stateMutability": "nonpayable",
			"type": "constructor"
		},
		{
			"inputs": [
				{
					"internalType": "address",
					"name": "_reserve",
					"type": "address"
				},
				{
					"internalType": "uint256",
					"name": "_amount",
					"type": "uint256"
				},
				{
					"internalType": "uint256",
					"name": "_fee",
					"type": "uint256"
				},
				{
					"internalType": "bytes",
					"name": "_params",
					"type": "bytes"
				}
			],
			"name": "executeOperation",
			"outputs": [],
			"stateMutability": "nonpayable",
			"type": "function"
		},
		{
			"inputs": [],
			"name": "fallback",
			"outputs": [],
			"stateMutability": "payable",
			"type": "function"
		},
		{
			"inputs": [
				{
					"internalType": "address",
					"name": "_asset",
					"type": "address"
				},
				{
					"internalType": "uint256",
					"name": "_amount",
					"type": "uint256"
				}
			],
			"name": "flashloan",
			"outputs": [],
			"stateMutability": "payable",
			"type": "function"
		},
		{
			"inputs": [
				{
					"internalType": "address",
					"name": "_tokenIn",
					"type": "address"
				},
				{
					"internalType": "address",
					"name": "_tokenOut",
					"type": "address"
				},
				{
					"internalType": "uint256",
					"name": "_amountIn",
					"type": "uint256"
				}
			],
			"name": "getAmountOutMin",
			"outputs": [
				{
					"internalType": "uint256",
					"name": "",
					"type": "uint256"
				}
			],
			"stateMutability": "view",
			"type": "function"
		},
		{
			"inputs": [
				{
					"internalType": "address",
					"name": "_tokenIn",
					"type": "address"
				},
				{
					"internalType": "address",
					"name": "_tokenOut",
					"type": "address"
				},
				{
					"internalType": "uint256",
					"name": "_amountIn",
					"type": "uint256"
				},
				{
					"internalType": "uint256",
					"name": "_amountOutMin",
					"type": "uint256"
				},
				{
					"internalType": "address",
					"name": "_to",
					"type": "address"
				}
			],
			"name": "swap",
			"outputs": [],
			"stateMutability": "nonpayable",
			"type": "function"
		},
		{
			"inputs": [],
			"name": "unilendFlashLoanCore",
			"outputs": [
				{
					"internalType": "address payable",
					"name": "",
					"type": "address"
				}
			],
			"stateMutability": "view",
			"type": "function"
		},
		{
			"inputs": [],
			"name": "withdraw",
			"outputs": [],
			"stateMutability": "nonpayable",
			"type": "function"
		},
		{
			"inputs": [
				{
					"internalType": "address",
					"name": "_tokenContract",
					"type": "address"
				},
				{
					"internalType": "uint256",
					"name": "_amount",
					"type": "uint256"
				}
			],
			"name": "withdrawToken",
			"outputs": [],
			"stateMutability": "nonpayable",
			"type": "function"
		},
		{
			"stateMutability": "payable",
			"type": "receive"
		}
	]
}